{
  "contractName": "NftMarket",
  "abi": [
    {
      "inputs": [],
      "stateMutability": "nonpayable",
      "type": "constructor"
    },
    {
      "anonymous": false,
      "inputs": [
        {
          "indexed": true,
          "internalType": "address",
          "name": "owner",
          "type": "address"
        },
        {
          "indexed": true,
          "internalType": "address",
          "name": "approved",
          "type": "address"
        },
        {
          "indexed": true,
          "internalType": "uint256",
          "name": "tokenId",
          "type": "uint256"
        }
      ],
      "name": "Approval",
      "type": "event"
    },
    {
      "anonymous": false,
      "inputs": [
        {
          "indexed": true,
          "internalType": "address",
          "name": "owner",
          "type": "address"
        },
        {
          "indexed": true,
          "internalType": "address",
          "name": "operator",
          "type": "address"
        },
        {
          "indexed": false,
          "internalType": "bool",
          "name": "approved",
          "type": "bool"
        }
      ],
      "name": "ApprovalForAll",
      "type": "event"
    },
    {
      "anonymous": false,
      "inputs": [
        {
          "indexed": false,
          "internalType": "uint256",
          "name": "_fromTokenId",
          "type": "uint256"
        },
        {
          "indexed": false,
          "internalType": "uint256",
          "name": "_toTokenId",
          "type": "uint256"
        }
      ],
      "name": "BatchMetadataUpdate",
      "type": "event"
    },
    {
      "anonymous": false,
      "inputs": [
        {
          "indexed": false,
          "internalType": "uint256",
          "name": "_tokenId",
          "type": "uint256"
        }
      ],
      "name": "MetadataUpdate",
      "type": "event"
    },
    {
      "anonymous": false,
      "inputs": [
        {
          "indexed": false,
          "internalType": "uint256",
          "name": "tokenId",
          "type": "uint256"
        },
        {
          "indexed": false,
          "internalType": "uint256",
          "name": "price",
          "type": "uint256"
        },
        {
          "indexed": false,
          "internalType": "address",
          "name": "creator",
          "type": "address"
        },
        {
          "indexed": false,
          "internalType": "bool",
          "name": "isListed",
          "type": "bool"
        }
      ],
      "name": "NftItemCreated",
      "type": "event"
    },
    {
      "anonymous": false,
      "inputs": [
        {
          "indexed": true,
          "internalType": "address",
          "name": "previousOwner",
          "type": "address"
        },
        {
          "indexed": true,
          "internalType": "address",
          "name": "newOwner",
          "type": "address"
        }
      ],
      "name": "OwnershipTransferred",
      "type": "event"
    },
    {
      "anonymous": false,
      "inputs": [
        {
          "indexed": true,
          "internalType": "address",
          "name": "from",
          "type": "address"
        },
        {
          "indexed": true,
          "internalType": "address",
          "name": "to",
          "type": "address"
        },
        {
          "indexed": true,
          "internalType": "uint256",
          "name": "tokenId",
          "type": "uint256"
        }
      ],
      "name": "Transfer",
      "type": "event"
    },
    {
      "inputs": [
        {
          "internalType": "address",
          "name": "to",
          "type": "address"
        },
        {
          "internalType": "uint256",
          "name": "tokenId",
          "type": "uint256"
        }
      ],
      "name": "approve",
      "outputs": [],
      "stateMutability": "nonpayable",
      "type": "function"
    },
    {
      "inputs": [
        {
          "internalType": "address",
          "name": "owner",
          "type": "address"
        }
      ],
      "name": "balanceOf",
      "outputs": [
        {
          "internalType": "uint256",
          "name": "",
          "type": "uint256"
        }
      ],
      "stateMutability": "view",
      "type": "function",
      "constant": true
    },
    {
      "inputs": [
        {
          "internalType": "uint256",
          "name": "tokenId",
          "type": "uint256"
        }
      ],
      "name": "getApproved",
      "outputs": [
        {
          "internalType": "address",
          "name": "",
          "type": "address"
        }
      ],
      "stateMutability": "view",
      "type": "function",
      "constant": true
    },
    {
      "inputs": [
        {
          "internalType": "address",
          "name": "owner",
          "type": "address"
        },
        {
          "internalType": "address",
          "name": "operator",
          "type": "address"
        }
      ],
      "name": "isApprovedForAll",
      "outputs": [
        {
          "internalType": "bool",
          "name": "",
          "type": "bool"
        }
      ],
      "stateMutability": "view",
      "type": "function",
      "constant": true
    },
    {
      "inputs": [],
      "name": "listingPrice",
      "outputs": [
        {
          "internalType": "uint256",
          "name": "",
          "type": "uint256"
        }
      ],
      "stateMutability": "view",
      "type": "function",
      "constant": true
    },
    {
      "inputs": [],
      "name": "name",
      "outputs": [
        {
          "internalType": "string",
          "name": "",
          "type": "string"
        }
      ],
      "stateMutability": "view",
      "type": "function",
      "constant": true
    },
    {
      "inputs": [],
      "name": "owner",
      "outputs": [
        {
          "internalType": "address",
          "name": "",
          "type": "address"
        }
      ],
      "stateMutability": "view",
      "type": "function",
      "constant": true
    },
    {
      "inputs": [
        {
          "internalType": "uint256",
          "name": "tokenId",
          "type": "uint256"
        }
      ],
      "name": "ownerOf",
      "outputs": [
        {
          "internalType": "address",
          "name": "",
          "type": "address"
        }
      ],
      "stateMutability": "view",
      "type": "function",
      "constant": true
    },
    {
      "inputs": [],
      "name": "renounceOwnership",
      "outputs": [],
      "stateMutability": "nonpayable",
      "type": "function"
    },
    {
      "inputs": [
        {
          "internalType": "address",
          "name": "from",
          "type": "address"
        },
        {
          "internalType": "address",
          "name": "to",
          "type": "address"
        },
        {
          "internalType": "uint256",
          "name": "tokenId",
          "type": "uint256"
        }
      ],
      "name": "safeTransferFrom",
      "outputs": [],
      "stateMutability": "nonpayable",
      "type": "function"
    },
    {
      "inputs": [
        {
          "internalType": "address",
          "name": "from",
          "type": "address"
        },
        {
          "internalType": "address",
          "name": "to",
          "type": "address"
        },
        {
          "internalType": "uint256",
          "name": "tokenId",
          "type": "uint256"
        },
        {
          "internalType": "bytes",
          "name": "data",
          "type": "bytes"
        }
      ],
      "name": "safeTransferFrom",
      "outputs": [],
      "stateMutability": "nonpayable",
      "type": "function"
    },
    {
      "inputs": [
        {
          "internalType": "address",
          "name": "operator",
          "type": "address"
        },
        {
          "internalType": "bool",
          "name": "approved",
          "type": "bool"
        }
      ],
      "name": "setApprovalForAll",
      "outputs": [],
      "stateMutability": "nonpayable",
      "type": "function"
    },
    {
      "inputs": [
        {
          "internalType": "bytes4",
          "name": "interfaceId",
          "type": "bytes4"
        }
      ],
      "name": "supportsInterface",
      "outputs": [
        {
          "internalType": "bool",
          "name": "",
          "type": "bool"
        }
      ],
      "stateMutability": "view",
      "type": "function",
      "constant": true
    },
    {
      "inputs": [],
      "name": "symbol",
      "outputs": [
        {
          "internalType": "string",
          "name": "",
          "type": "string"
        }
      ],
      "stateMutability": "view",
      "type": "function",
      "constant": true
    },
    {
      "inputs": [
        {
          "internalType": "uint256",
          "name": "tokenId",
          "type": "uint256"
        }
      ],
      "name": "tokenURI",
      "outputs": [
        {
          "internalType": "string",
          "name": "",
          "type": "string"
        }
      ],
      "stateMutability": "view",
      "type": "function",
      "constant": true
    },
    {
      "inputs": [
        {
          "internalType": "address",
          "name": "from",
          "type": "address"
        },
        {
          "internalType": "address",
          "name": "to",
          "type": "address"
        },
        {
          "internalType": "uint256",
          "name": "tokenId",
          "type": "uint256"
        }
      ],
      "name": "transferFrom",
      "outputs": [],
      "stateMutability": "nonpayable",
      "type": "function"
    },
    {
      "inputs": [
        {
          "internalType": "address",
          "name": "newOwner",
          "type": "address"
        }
      ],
      "name": "transferOwnership",
      "outputs": [],
      "stateMutability": "nonpayable",
      "type": "function"
    },
    {
      "inputs": [
        {
          "internalType": "uint256",
          "name": "newPrice",
          "type": "uint256"
        }
      ],
      "name": "setListingPrice",
      "outputs": [],
      "stateMutability": "nonpayable",
      "type": "function"
    },
    {
      "inputs": [
        {
          "internalType": "uint256",
          "name": "tokenId",
          "type": "uint256"
        }
      ],
      "name": "getNftItem",
      "outputs": [
        {
          "components": [
            {
              "internalType": "uint256",
              "name": "tokenId",
              "type": "uint256"
            },
            {
              "internalType": "uint256",
              "name": "price",
              "type": "uint256"
            },
            {
              "internalType": "address",
              "name": "creator",
              "type": "address"
            },
            {
              "internalType": "bool",
              "name": "isListed",
              "type": "bool"
            }
          ],
          "internalType": "struct NftMarket.NftItem",
          "name": "",
          "type": "tuple"
        }
      ],
      "stateMutability": "view",
      "type": "function",
      "constant": true
    },
    {
      "inputs": [],
      "name": "listedItemsCount",
      "outputs": [
        {
          "internalType": "uint256",
          "name": "",
          "type": "uint256"
        }
      ],
      "stateMutability": "view",
      "type": "function",
      "constant": true
    },
    {
      "inputs": [
        {
          "internalType": "string",
          "name": "tokenURI",
          "type": "string"
        }
      ],
      "name": "tokenURIExists",
      "outputs": [
        {
          "internalType": "bool",
          "name": "",
          "type": "bool"
        }
      ],
      "stateMutability": "view",
      "type": "function",
      "constant": true
    },
    {
      "inputs": [],
      "name": "totalSupply",
      "outputs": [
        {
          "internalType": "uint256",
          "name": "",
          "type": "uint256"
        }
      ],
      "stateMutability": "view",
      "type": "function",
      "constant": true
    },
    {
      "inputs": [
        {
          "internalType": "uint256",
          "name": "index",
          "type": "uint256"
        }
      ],
      "name": "tokenByIndex",
      "outputs": [
        {
          "internalType": "uint256",
          "name": "",
          "type": "uint256"
        }
      ],
      "stateMutability": "view",
      "type": "function",
      "constant": true
    },
    {
      "inputs": [
        {
          "internalType": "address",
          "name": "owner",
          "type": "address"
        },
        {
          "internalType": "uint256",
          "name": "index",
          "type": "uint256"
        }
      ],
      "name": "tokenofOwnerByIndex",
      "outputs": [
        {
          "internalType": "uint256",
          "name": "",
          "type": "uint256"
        }
      ],
      "stateMutability": "view",
      "type": "function",
      "constant": true
    },
    {
      "inputs": [],
      "name": "getAllNftsOnSale",
      "outputs": [
        {
          "components": [
            {
              "internalType": "uint256",
              "name": "tokenId",
              "type": "uint256"
            },
            {
              "internalType": "uint256",
              "name": "price",
              "type": "uint256"
            },
            {
              "internalType": "address",
              "name": "creator",
              "type": "address"
            },
            {
              "internalType": "bool",
              "name": "isListed",
              "type": "bool"
            }
          ],
          "internalType": "struct NftMarket.NftItem[]",
          "name": "",
          "type": "tuple[]"
        }
      ],
      "stateMutability": "view",
      "type": "function",
      "constant": true
    },
    {
      "inputs": [],
      "name": "getOwnedNfts",
      "outputs": [
        {
          "components": [
            {
              "internalType": "uint256",
              "name": "tokenId",
              "type": "uint256"
            },
            {
              "internalType": "uint256",
              "name": "price",
              "type": "uint256"
            },
            {
              "internalType": "address",
              "name": "creator",
              "type": "address"
            },
            {
              "internalType": "bool",
              "name": "isListed",
              "type": "bool"
            }
          ],
          "internalType": "struct NftMarket.NftItem[]",
          "name": "",
          "type": "tuple[]"
        }
      ],
      "stateMutability": "view",
      "type": "function",
      "constant": true
    },
    {
      "inputs": [
        {
          "internalType": "string",
          "name": "tokenURI",
          "type": "string"
        },
        {
          "internalType": "uint256",
          "name": "price",
          "type": "uint256"
        }
      ],
      "name": "mintToken",
      "outputs": [
        {
          "internalType": "uint256",
          "name": "",
          "type": "uint256"
        }
      ],
      "stateMutability": "payable",
      "type": "function",
      "payable": true
    },
    {
      "inputs": [
        {
          "internalType": "uint256",
          "name": "tokenId",
          "type": "uint256"
        }
      ],
      "name": "buyNft",
      "outputs": [],
      "stateMutability": "payable",
      "type": "function",
      "payable": true
    },
    {
      "inputs": [
        {
          "internalType": "uint256",
          "name": "tokenId",
          "type": "uint256"
        },
        {
          "internalType": "uint256",
          "name": "newPrice",
          "type": "uint256"
        }
      ],
      "name": "placeNftOnSale",
      "outputs": [],
      "stateMutability": "payable",
      "type": "function",
      "payable": true
    }
  ],
  "bytecode": "0x60806040526658d15e176280006008553480156200001c57600080fd5b506040518060400160405280600d81526020017f437265617475726573204e4654000000000000000000000000000000000000008152506040518060400160405280600481526020017f434e46540000000000000000000000000000000000000000000000000000000081525081600090816200009a91906200041d565b508060019081620000ac91906200041d565b505050620000cf620000c3620000d560201b60201c565b620000dd60201b60201c565b62000504565b600033905090565b6000600760009054906101000a900473ffffffffffffffffffffffffffffffffffffffff16905081600760006101000a81548173ffffffffffffffffffffffffffffffffffffffff021916908373ffffffffffffffffffffffffffffffffffffffff1602179055508173ffffffffffffffffffffffffffffffffffffffff168173ffffffffffffffffffffffffffffffffffffffff167f8be0079c531659141344cd1fd0a4f28419497f9722a3daafe3b4186f6b6457e060405160405180910390a35050565b600081519050919050565b7f4e487b7100000000000000000000000000000000000000000000000000000000600052604160045260246000fd5b7f4e487b7100000000000000000000000000000000000000000000000000000000600052602260045260246000fd5b600060028204905060018216806200022557607f821691505b6020821081036200023b576200023a620001dd565b5b50919050565b60008190508160005260206000209050919050565b60006020601f8301049050919050565b600082821b905092915050565b600060088302620002a57fffffffffffffffffffffffffffffffffffffffffffffffffffffffffffffffff8262000266565b620002b1868362000266565b95508019841693508086168417925050509392505050565b6000819050919050565b6000819050919050565b6000620002fe620002f8620002f284620002c9565b620002d3565b620002c9565b9050919050565b6000819050919050565b6200031a83620002dd565b62000332620003298262000305565b84845462000273565b825550505050565b600090565b620003496200033a565b620003568184846200030f565b505050565b5b818110156200037e57620003726000826200033f565b6001810190506200035c565b5050565b601f821115620003cd57620003978162000241565b620003a28462000256565b81016020851015620003b2578190505b620003ca620003c18562000256565b8301826200035b565b50505b505050565b600082821c905092915050565b6000620003f260001984600802620003d2565b1980831691505092915050565b60006200040d8383620003df565b9150826002028217905092915050565b6200042882620001a3565b67ffffffffffffffff811115620004445762000443620001ae565b5b6200045082546200020c565b6200045d82828562000382565b600060209050601f83116001811462000495576000841562000480578287015190505b6200048c8582620003ff565b865550620004fc565b601f198416620004a58662000241565b60005b82811015620004cf57848901518255600182019150602085019450602081019050620004a8565b86831015620004ef5784890151620004eb601f891682620003df565b8355505b6001600288020188555050505b505050505050565b614a1480620005146000396000f3fe6080604052600436106101c25760003560e01c80636f1a0af5116100f7578063a22cb46511610095578063c87b56dd11610064578063c87b56dd14610651578063ccb4918d1461068e578063e985e9c5146106b9578063f2fde38b146106f6576101c2565b8063a22cb465146105a4578063b88d4fde146105cd578063c046372c146105f6578063c78f19f914610626576101c2565b8063715018a6116100d1578063715018a61461050e5780637c726b69146105255780638da5cb5b1461054e57806395d89b4114610579576101c2565b80636f1a0af51461046957806370a08231146104a657806370cbcb43146104e3576101c2565b8063243adbdd1161016457806342842e0e1161013e57806342842e0e1461038957806343d32ae7146103b25780634f6ccce7146103ef5780636352211e1461042c576101c2565b8063243adbdd146103055780632ffa30c11461032157806336b536be1461035e576101c2565b8063095ea7b3116101a0578063095ea7b31461026c57806318160ddd1461029557806321f422e5146102c057806323b872dd146102dc576101c2565b806301ffc9a7146101c757806306fdde0314610204578063081812fc1461022f575b600080fd5b3480156101d357600080fd5b506101ee60048036038101906101e99190612f9c565b61071f565b6040516101fb9190612fe4565b60405180910390f35b34801561021057600080fd5b50610219610780565b604051610226919061308f565b60405180910390f35b34801561023b57600080fd5b50610256600480360381019061025191906130e7565b610812565b6040516102639190613155565b60405180910390f35b34801561027857600080fd5b50610293600480360381019061028e919061319c565b610858565b005b3480156102a157600080fd5b506102aa61096f565b6040516102b791906131eb565b60405180910390f35b6102da60048036038101906102d59190613206565b61097c565b005b3480156102e857600080fd5b5061030360048036038101906102fe9190613246565b610af8565b005b61031f600480360381019061031a91906130e7565b610b58565b005b34801561032d57600080fd5b506103486004803603810190610343919061319c565b610cc0565b60405161035591906131eb565b60405180910390f35b34801561036a57600080fd5b50610373610d65565b60405161038091906133ca565b60405180910390f35b34801561039557600080fd5b506103b060048036038101906103ab9190613246565b610ef9565b005b3480156103be57600080fd5b506103d960048036038101906103d49190613521565b610f19565b6040516103e69190612fe4565b60405180910390f35b3480156103fb57600080fd5b50610416600480360381019061041191906130e7565b610f55565b60405161042391906131eb565b60405180910390f35b34801561043857600080fd5b50610453600480360381019061044e91906130e7565b610fc6565b6040516104609190613155565b60405180910390f35b34801561047557600080fd5b50610490600480360381019061048b91906130e7565b61104c565b60405161049d91906135bf565b60405180910390f35b3480156104b257600080fd5b506104cd60048036038101906104c891906135da565b6110fe565b6040516104da91906131eb565b60405180910390f35b3480156104ef57600080fd5b506104f86111b5565b60405161050591906133ca565b60405180910390f35b34801561051a57600080fd5b50610523611319565b005b34801561053157600080fd5b5061054c600480360381019061054791906130e7565b61132d565b005b34801561055a57600080fd5b50610563611382565b6040516105709190613155565b60405180910390f35b34801561058557600080fd5b5061058e6113ac565b60405161059b919061308f565b60405180910390f35b3480156105b057600080fd5b506105cb60048036038101906105c69190613633565b61143e565b005b3480156105d957600080fd5b506105f460048036038101906105ef9190613714565b611454565b005b610610600480360381019061060b9190613797565b6114b6565b60405161061d91906131eb565b60405180910390f35b34801561063257600080fd5b5061063b6115c6565b60405161064891906131eb565b60405180910390f35b34801561065d57600080fd5b50610678600480360381019061067391906130e7565b6115cc565b604051610685919061308f565b60405180910390f35b34801561069a57600080fd5b506106a36116de565b6040516106b091906131eb565b60405180910390f35b3480156106c557600080fd5b506106e060048036038101906106db91906137f3565b6116ef565b6040516106ed9190612fe4565b60405180910390f35b34801561070257600080fd5b5061071d600480360381019061071891906135da565b611783565b005b6000634906490660e01b7bffffffffffffffffffffffffffffffffffffffffffffffffffffffff1916827bffffffffffffffffffffffffffffffffffffffffffffffffffffffff19161480610779575061077882611806565b5b9050919050565b60606000805461078f90613862565b80601f01602080910402602001604051908101604052809291908181526020018280546107bb90613862565b80156108085780601f106107dd57610100808354040283529160200191610808565b820191906000526020600020905b8154815290600101906020018083116107eb57829003601f168201915b5050505050905090565b600061081d826118e8565b6004600083815260200190815260200160002060009054906101000a900473ffffffffffffffffffffffffffffffffffffffff169050919050565b600061086382610fc6565b90508073ffffffffffffffffffffffffffffffffffffffff168373ffffffffffffffffffffffffffffffffffffffff16036108d3576040517f08c379a00000000000000000000000000000000000000000000000000000000081526004016108ca90613905565b60405180910390fd5b8073ffffffffffffffffffffffffffffffffffffffff166108f2611933565b73ffffffffffffffffffffffffffffffffffffffff16148061092157506109208161091b611933565b6116ef565b5b610960576040517f08c379a000000000000000000000000000000000000000000000000000000000815260040161095790613997565b60405180910390fd5b61096a838361193b565b505050565b6000600f80549050905090565b3373ffffffffffffffffffffffffffffffffffffffff1661099c83610fc6565b73ffffffffffffffffffffffffffffffffffffffff16146109f2576040517f08c379a00000000000000000000000000000000000000000000000000000000081526004016109e990613a03565b60405180910390fd5b60001515600c600084815260200190815260200160002060020160149054906101000a900460ff16151514610a5c576040517f08c379a0000000000000000000000000000000000000000000000000000000008152600401610a5390613a6f565b60405180910390fd5b6008543414610aa0576040517f08c379a0000000000000000000000000000000000000000000000000000000008152600401610a9790613b01565b60405180910390fd5b6001600c600084815260200190815260200160002060020160146101000a81548160ff02191690831515021790555080600c600084815260200190815260200160002060010181905550610af460096119f4565b5050565b610b09610b03611933565b82611a0a565b610b48576040517f08c379a0000000000000000000000000000000000000000000000000000000008152600401610b3f90613b93565b60405180910390fd5b610b53838383611a9f565b505050565b6000600c60008381526020019081526020016000206001015490506000610b7e83610fc6565b90508073ffffffffffffffffffffffffffffffffffffffff163373ffffffffffffffffffffffffffffffffffffffff1603610bee576040517f08c379a0000000000000000000000000000000000000000000000000000000008152600401610be590613bff565b60405180910390fd5b813414610c30576040517f08c379a0000000000000000000000000000000000000000000000000000000008152600401610c2790613c6b565b60405180910390fd5b6000600c600085815260200190815260200160002060020160146101000a81548160ff021916908315150217905550610c696009611d98565b610c74813385611a9f565b8073ffffffffffffffffffffffffffffffffffffffff166108fc349081150290604051600060405180830381858888f19350505050158015610cba573d6000803e3d6000fd5b50505050565b6000610ccb836110fe565b8210610d0c576040517f08c379a0000000000000000000000000000000000000000000000000000000008152600401610d0390613cd7565b60405180910390fd5b600d60008473ffffffffffffffffffffffffffffffffffffffff1673ffffffffffffffffffffffffffffffffffffffff168152602001908152602001600020600083815260200190815260200160002054905092915050565b60606000610d7161096f565b9050600080610d806009611df4565b67ffffffffffffffff811115610d9957610d986133f6565b5b604051908082528060200260200182016040528015610dd257816020015b610dbf612ef0565b815260200190600190039081610db75790505b50905060005b83811015610eef576000610deb82610f55565b90506000600c600083815260200190815260200160002090508060020160149054906101000a900460ff1615610eda578060405180608001604052908160008201548152602001600182015481526020016002820160009054906101000a900473ffffffffffffffffffffffffffffffffffffffff1673ffffffffffffffffffffffffffffffffffffffff1673ffffffffffffffffffffffffffffffffffffffff1681526020016002820160149054906101000a900460ff161515151581525050848681518110610ebf57610ebe613cf7565b5b6020026020010181905250600185610ed79190613d55565b94505b50508080610ee790613d89565b915050610dd8565b5080935050505090565b610f1483838360405180602001604052806000815250611454565b505050565b600060011515600b83604051610f2f9190613e0d565b908152602001604051809103902060009054906101000a900460ff161515149050919050565b6000610f5f61096f565b8210610fa0576040517f08c379a0000000000000000000000000000000000000000000000000000000008152600401610f9790613cd7565b60405180910390fd5b600f8281548110610fb457610fb3613cf7565b5b90600052602060002001549050919050565b600080610fd283611e02565b9050600073ffffffffffffffffffffffffffffffffffffffff168173ffffffffffffffffffffffffffffffffffffffff1603611043576040517f08c379a000000000000000000000000000000000000000000000000000000000815260040161103a90613e70565b60405180910390fd5b80915050919050565b611054612ef0565b600c600083815260200190815260200160002060405180608001604052908160008201548152602001600182015481526020016002820160009054906101000a900473ffffffffffffffffffffffffffffffffffffffff1673ffffffffffffffffffffffffffffffffffffffff1673ffffffffffffffffffffffffffffffffffffffff1681526020016002820160149054906101000a900460ff1615151515815250509050919050565b60008073ffffffffffffffffffffffffffffffffffffffff168273ffffffffffffffffffffffffffffffffffffffff160361116e576040517f08c379a000000000000000000000000000000000000000000000000000000000815260040161116590613f02565b60405180910390fd5b600360008373ffffffffffffffffffffffffffffffffffffffff1673ffffffffffffffffffffffffffffffffffffffff168152602001908152602001600020549050919050565b606060006111c2336110fe565b905060008167ffffffffffffffff8111156111e0576111df6133f6565b5b60405190808252806020026020018201604052801561121957816020015b611206612ef0565b8152602001906001900390816111fe5790505b50905060005b828110156113105760006112333383610cc0565b90506000600c600083815260200190815260200160002090508060405180608001604052908160008201548152602001600182015481526020016002820160009054906101000a900473ffffffffffffffffffffffffffffffffffffffff1673ffffffffffffffffffffffffffffffffffffffff1673ffffffffffffffffffffffffffffffffffffffff1681526020016002820160149054906101000a900460ff1615151515815250508484815181106112f0576112ef613cf7565b5b60200260200101819052505050808061130890613d89565b91505061121f565b50809250505090565b611321611e3f565b61132b6000611ebd565b565b611335611e3f565b60008111611378576040517f08c379a000000000000000000000000000000000000000000000000000000000815260040161136f90613f94565b60405180910390fd5b8060088190555050565b6000600760009054906101000a900473ffffffffffffffffffffffffffffffffffffffff16905090565b6060600180546113bb90613862565b80601f01602080910402602001604051908101604052809291908181526020018280546113e790613862565b80156114345780601f1061140957610100808354040283529160200191611434565b820191906000526020600020905b81548152906001019060200180831161141757829003601f168201915b5050505050905090565b611450611449611933565b8383611f83565b5050565b61146561145f611933565b83611a0a565b6114a4576040517f08c379a000000000000000000000000000000000000000000000000000000000815260040161149b90613b93565b60405180910390fd5b6114b0848484846120ef565b50505050565b60006114c183610f19565b15611501576040517f08c379a00000000000000000000000000000000000000000000000000000000081526004016114f890614000565b60405180910390fd5b6008543414611545576040517f08c379a000000000000000000000000000000000000000000000000000000000815260040161153c90613b01565b60405180910390fd5b61154f600a6119f4565b61155960096119f4565b6000611565600a611df4565b9050611571338261214b565b61157b8185612169565b611585818461220d565b6001600b856040516115979190613e0d565b908152602001604051809103902060006101000a81548160ff0219169083151502179055508091505092915050565b60085481565b60606115d7826118e8565b60006006600084815260200190815260200160002080546115f790613862565b80601f016020809104026020016040519081016040528092919081815260200182805461162390613862565b80156116705780601f1061164557610100808354040283529160200191611670565b820191906000526020600020905b81548152906001019060200180831161165357829003601f168201915b50505050509050600061168161235d565b905060008151036116965781925050506116d9565b6000825111156116cb5780826040516020016116b3929190614020565b604051602081830303815290604052925050506116d9565b6116d484612374565b925050505b919050565b60006116ea6009611df4565b905090565b6000600560008473ffffffffffffffffffffffffffffffffffffffff1673ffffffffffffffffffffffffffffffffffffffff16815260200190815260200160002060008373ffffffffffffffffffffffffffffffffffffffff1673ffffffffffffffffffffffffffffffffffffffff16815260200190815260200160002060009054906101000a900460ff16905092915050565b61178b611e3f565b600073ffffffffffffffffffffffffffffffffffffffff168173ffffffffffffffffffffffffffffffffffffffff16036117fa576040517f08c379a00000000000000000000000000000000000000000000000000000000081526004016117f1906140b6565b60405180910390fd5b61180381611ebd565b50565b60007f80ac58cd000000000000000000000000000000000000000000000000000000007bffffffffffffffffffffffffffffffffffffffffffffffffffffffff1916827bffffffffffffffffffffffffffffffffffffffffffffffffffffffff191614806118d157507f5b5e139f000000000000000000000000000000000000000000000000000000007bffffffffffffffffffffffffffffffffffffffffffffffffffffffff1916827bffffffffffffffffffffffffffffffffffffffffffffffffffffffff1916145b806118e157506118e0826123dc565b5b9050919050565b6118f181612446565b611930576040517f08c379a000000000000000000000000000000000000000000000000000000000815260040161192790613e70565b60405180910390fd5b50565b600033905090565b816004600083815260200190815260200160002060006101000a81548173ffffffffffffffffffffffffffffffffffffffff021916908373ffffffffffffffffffffffffffffffffffffffff160217905550808273ffffffffffffffffffffffffffffffffffffffff166119ae83610fc6565b73ffffffffffffffffffffffffffffffffffffffff167f8c5be1e5ebec7d5bd14f71427d1e84f3dd0314c0f7b2291e5b200ac8c7c3b92560405160405180910390a45050565b6001816000016000828254019250508190555050565b600080611a1683610fc6565b90508073ffffffffffffffffffffffffffffffffffffffff168473ffffffffffffffffffffffffffffffffffffffff161480611a585750611a5781856116ef565b5b80611a9657508373ffffffffffffffffffffffffffffffffffffffff16611a7e84610812565b73ffffffffffffffffffffffffffffffffffffffff16145b91505092915050565b8273ffffffffffffffffffffffffffffffffffffffff16611abf82610fc6565b73ffffffffffffffffffffffffffffffffffffffff1614611b15576040517f08c379a0000000000000000000000000000000000000000000000000000000008152600401611b0c90614148565b60405180910390fd5b600073ffffffffffffffffffffffffffffffffffffffff168273ffffffffffffffffffffffffffffffffffffffff1603611b84576040517f08c379a0000000000000000000000000000000000000000000000000000000008152600401611b7b906141da565b60405180910390fd5b611b918383836001612487565b8273ffffffffffffffffffffffffffffffffffffffff16611bb182610fc6565b73ffffffffffffffffffffffffffffffffffffffff1614611c07576040517f08c379a0000000000000000000000000000000000000000000000000000000008152600401611bfe90614148565b60405180910390fd5b6004600082815260200190815260200160002060006101000a81549073ffffffffffffffffffffffffffffffffffffffff02191690556001600360008573ffffffffffffffffffffffffffffffffffffffff1673ffffffffffffffffffffffffffffffffffffffff168152602001908152602001600020600082825403925050819055506001600360008473ffffffffffffffffffffffffffffffffffffffff1673ffffffffffffffffffffffffffffffffffffffff16815260200190815260200160002060008282540192505081905550816002600083815260200190815260200160002060006101000a81548173ffffffffffffffffffffffffffffffffffffffff021916908373ffffffffffffffffffffffffffffffffffffffff160217905550808273ffffffffffffffffffffffffffffffffffffffff168473ffffffffffffffffffffffffffffffffffffffff167fddf252ad1be2c89b69c2b068fc378daa952ba7f163c4a11628f55a4df523b3ef60405160405180910390a4611d93838383600161259b565b505050565b60008160000154905060008111611de4576040517f08c379a0000000000000000000000000000000000000000000000000000000008152600401611ddb90614246565b60405180910390fd5b6001810382600001819055505050565b600081600001549050919050565b60006002600083815260200190815260200160002060009054906101000a900473ffffffffffffffffffffffffffffffffffffffff169050919050565b611e47611933565b73ffffffffffffffffffffffffffffffffffffffff16611e65611382565b73ffffffffffffffffffffffffffffffffffffffff1614611ebb576040517f08c379a0000000000000000000000000000000000000000000000000000000008152600401611eb2906142b2565b60405180910390fd5b565b6000600760009054906101000a900473ffffffffffffffffffffffffffffffffffffffff16905081600760006101000a81548173ffffffffffffffffffffffffffffffffffffffff021916908373ffffffffffffffffffffffffffffffffffffffff1602179055508173ffffffffffffffffffffffffffffffffffffffff168173ffffffffffffffffffffffffffffffffffffffff167f8be0079c531659141344cd1fd0a4f28419497f9722a3daafe3b4186f6b6457e060405160405180910390a35050565b8173ffffffffffffffffffffffffffffffffffffffff168373ffffffffffffffffffffffffffffffffffffffff1603611ff1576040517f08c379a0000000000000000000000000000000000000000000000000000000008152600401611fe89061431e565b60405180910390fd5b80600560008573ffffffffffffffffffffffffffffffffffffffff1673ffffffffffffffffffffffffffffffffffffffff16815260200190815260200160002060008473ffffffffffffffffffffffffffffffffffffffff1673ffffffffffffffffffffffffffffffffffffffff16815260200190815260200160002060006101000a81548160ff0219169083151502179055508173ffffffffffffffffffffffffffffffffffffffff168373ffffffffffffffffffffffffffffffffffffffff167f17307eab39ab6107e8899845ad3d59bd9653f200f220920489ca2b5937696c31836040516120e29190612fe4565b60405180910390a3505050565b6120fa848484611a9f565b612106848484846125a1565b612145576040517f08c379a000000000000000000000000000000000000000000000000000000000815260040161213c906143b0565b60405180910390fd5b50505050565b612165828260405180602001604052806000815250612728565b5050565b61217282612446565b6121b1576040517f08c379a00000000000000000000000000000000000000000000000000000000081526004016121a890614442565b60405180910390fd5b806006600084815260200190815260200160002090816121d1919061460e565b507ff8e1a15aba9398e019f0b49df1a4fde98ee17ae345cb5f6b5e2c27f5033e8ce78260405161220191906131eb565b60405180910390a15050565b60008111612250576040517f08c379a00000000000000000000000000000000000000000000000000000000081526004016122479061472c565b60405180910390fd5b60405180608001604052808381526020018281526020013373ffffffffffffffffffffffffffffffffffffffff16815260200160011515815250600c6000848152602001908152602001600020600082015181600001556020820151816001015560408201518160020160006101000a81548173ffffffffffffffffffffffffffffffffffffffff021916908373ffffffffffffffffffffffffffffffffffffffff16021790555060608201518160020160146101000a81548160ff0219169083151502179055509050507f470031062672bc0246e132c723a729c4676710ec663a29e86c88678032daddea8282336001604051612351949392919061474c565b60405180910390a15050565b606060405180602001604052806000815250905090565b606061237f826118e8565b600061238961235d565b905060008151116123a957604051806020016040528060008152506123d4565b806123b384612783565b6040516020016123c4929190614020565b6040516020818303038152906040525b915050919050565b60007f01ffc9a7000000000000000000000000000000000000000000000000000000007bffffffffffffffffffffffffffffffffffffffffffffffffffffffff1916827bffffffffffffffffffffffffffffffffffffffffffffffffffffffff1916149050919050565b60008073ffffffffffffffffffffffffffffffffffffffff1661246883611e02565b73ffffffffffffffffffffffffffffffffffffffff1614159050919050565b61249384848484612851565b600073ffffffffffffffffffffffffffffffffffffffff168473ffffffffffffffffffffffffffffffffffffffff16036124d5576124d082612857565b612514565b8273ffffffffffffffffffffffffffffffffffffffff168473ffffffffffffffffffffffffffffffffffffffff16146125135761251284836128a0565b5b5b600073ffffffffffffffffffffffffffffffffffffffff168373ffffffffffffffffffffffffffffffffffffffff16036125565761255182612a0d565b612595565b8373ffffffffffffffffffffffffffffffffffffffff168373ffffffffffffffffffffffffffffffffffffffff1614612594576125938383612ade565b5b5b50505050565b50505050565b60006125c28473ffffffffffffffffffffffffffffffffffffffff16612b5d565b1561271b578373ffffffffffffffffffffffffffffffffffffffff1663150b7a026125eb611933565b8786866040518563ffffffff1660e01b815260040161260d94939291906147e6565b6020604051808303816000875af192505050801561264957506040513d601f19601f820116820180604052508101906126469190614847565b60015b6126cb573d8060008114612679576040519150601f19603f3d011682016040523d82523d6000602084013e61267e565b606091505b5060008151036126c3576040517f08c379a00000000000000000000000000000000000000000000000000000000081526004016126ba906143b0565b60405180910390fd5b805181602001fd5b63150b7a0260e01b7bffffffffffffffffffffffffffffffffffffffffffffffffffffffff1916817bffffffffffffffffffffffffffffffffffffffffffffffffffffffff191614915050612720565b600190505b949350505050565b6127328383612b80565b61273f60008484846125a1565b61277e576040517f08c379a0000000000000000000000000000000000000000000000000000000008152600401612775906143b0565b60405180910390fd5b505050565b60606000600161279284612d9d565b01905060008167ffffffffffffffff8111156127b1576127b06133f6565b5b6040519080825280601f01601f1916602001820160405280156127e35781602001600182028036833780820191505090505b509050600082602001820190505b600115612846578080600190039150507f3031323334353637383961626364656600000000000000000000000000000000600a86061a8153600a858161283a57612839614874565b5b049450600085036127f1575b819350505050919050565b50505050565b600f805490506010600083815260200190815260200160002081905550600f81908060018154018082558091505060019003906000526020600020016000909190919091505550565b600060016128ad846110fe565b6128b791906148a3565b90506000600e600084815260200190815260200160002054905081811461299c576000600d60008673ffffffffffffffffffffffffffffffffffffffff1673ffffffffffffffffffffffffffffffffffffffff168152602001908152602001600020600084815260200190815260200160002054905080600d60008773ffffffffffffffffffffffffffffffffffffffff1673ffffffffffffffffffffffffffffffffffffffff16815260200190815260200160002060008481526020019081526020016000208190555081600e600083815260200190815260200160002081905550505b600e600084815260200190815260200160002060009055600d60008573ffffffffffffffffffffffffffffffffffffffff1673ffffffffffffffffffffffffffffffffffffffff16815260200190815260200160002060008381526020019081526020016000206000905550505050565b60006001600f80549050612a2191906148a3565b90506000601060008481526020019081526020016000205490506000600f8381548110612a5157612a50613cf7565b5b9060005260206000200154905080600f8381548110612a7357612a72613cf7565b5b90600052602060002001819055508160106000838152602001908152602001600020819055506010600085815260200190815260200160002060009055600f805480612ac257612ac16148d7565b5b6001900381819060005260206000200160009055905550505050565b6000612ae9836110fe565b905081600d60008573ffffffffffffffffffffffffffffffffffffffff1673ffffffffffffffffffffffffffffffffffffffff16815260200190815260200160002060008381526020019081526020016000208190555080600e600084815260200190815260200160002081905550505050565b6000808273ffffffffffffffffffffffffffffffffffffffff163b119050919050565b600073ffffffffffffffffffffffffffffffffffffffff168273ffffffffffffffffffffffffffffffffffffffff1603612bef576040517f08c379a0000000000000000000000000000000000000000000000000000000008152600401612be690614952565b60405180910390fd5b612bf881612446565b15612c38576040517f08c379a0000000000000000000000000000000000000000000000000000000008152600401612c2f906149be565b60405180910390fd5b612c46600083836001612487565b612c4f81612446565b15612c8f576040517f08c379a0000000000000000000000000000000000000000000000000000000008152600401612c86906149be565b60405180910390fd5b6001600360008473ffffffffffffffffffffffffffffffffffffffff1673ffffffffffffffffffffffffffffffffffffffff16815260200190815260200160002060008282540192505081905550816002600083815260200190815260200160002060006101000a81548173ffffffffffffffffffffffffffffffffffffffff021916908373ffffffffffffffffffffffffffffffffffffffff160217905550808273ffffffffffffffffffffffffffffffffffffffff16600073ffffffffffffffffffffffffffffffffffffffff167fddf252ad1be2c89b69c2b068fc378daa952ba7f163c4a11628f55a4df523b3ef60405160405180910390a4612d9960008383600161259b565b5050565b600080600090507a184f03e93ff9f4daa797ed6e38ed64bf6a1f0100000000000000008310612dfb577a184f03e93ff9f4daa797ed6e38ed64bf6a1f0100000000000000008381612df157612df0614874565b5b0492506040810190505b6d04ee2d6d415b85acef81000000008310612e38576d04ee2d6d415b85acef81000000008381612e2e57612e2d614874565b5b0492506020810190505b662386f26fc100008310612e6757662386f26fc100008381612e5d57612e5c614874565b5b0492506010810190505b6305f5e1008310612e90576305f5e1008381612e8657612e85614874565b5b0492506008810190505b6127108310612eb5576127108381612eab57612eaa614874565b5b0492506004810190505b60648310612ed85760648381612ece57612ecd614874565b5b0492506002810190505b600a8310612ee7576001810190505b80915050919050565b60405180608001604052806000815260200160008152602001600073ffffffffffffffffffffffffffffffffffffffff1681526020016000151581525090565b6000604051905090565b600080fd5b600080fd5b60007fffffffff0000000000000000000000000000000000000000000000000000000082169050919050565b612f7981612f44565b8114612f8457600080fd5b50565b600081359050612f9681612f70565b92915050565b600060208284031215612fb257612fb1612f3a565b5b6000612fc084828501612f87565b91505092915050565b60008115159050919050565b612fde81612fc9565b82525050565b6000602082019050612ff96000830184612fd5565b92915050565b600081519050919050565b600082825260208201905092915050565b60005b8381101561303957808201518184015260208101905061301e565b60008484015250505050565b6000601f19601f8301169050919050565b600061306182612fff565b61306b818561300a565b935061307b81856020860161301b565b61308481613045565b840191505092915050565b600060208201905081810360008301526130a98184613056565b905092915050565b6000819050919050565b6130c4816130b1565b81146130cf57600080fd5b50565b6000813590506130e1816130bb565b92915050565b6000602082840312156130fd576130fc612f3a565b5b600061310b848285016130d2565b91505092915050565b600073ffffffffffffffffffffffffffffffffffffffff82169050919050565b600061313f82613114565b9050919050565b61314f81613134565b82525050565b600060208201905061316a6000830184613146565b92915050565b61317981613134565b811461318457600080fd5b50565b60008135905061319681613170565b92915050565b600080604083850312156131b3576131b2612f3a565b5b60006131c185828601613187565b92505060206131d2858286016130d2565b9150509250929050565b6131e5816130b1565b82525050565b600060208201905061320060008301846131dc565b92915050565b6000806040838503121561321d5761321c612f3a565b5b600061322b858286016130d2565b925050602061323c858286016130d2565b9150509250929050565b60008060006060848603121561325f5761325e612f3a565b5b600061326d86828701613187565b935050602061327e86828701613187565b925050604061328f868287016130d2565b9150509250925092565b600081519050919050565b600082825260208201905092915050565b6000819050602082019050919050565b6132ce816130b1565b82525050565b6132dd81613134565b82525050565b6132ec81612fc9565b82525050565b60808201600082015161330860008501826132c5565b50602082015161331b60208501826132c5565b50604082015161332e60408501826132d4565b50606082015161334160608501826132e3565b50505050565b600061335383836132f2565b60808301905092915050565b6000602082019050919050565b600061337782613299565b61338181856132a4565b935061338c836132b5565b8060005b838110156133bd5781516133a48882613347565b97506133af8361335f565b925050600181019050613390565b5085935050505092915050565b600060208201905081810360008301526133e4818461336c565b905092915050565b600080fd5b600080fd5b7f4e487b7100000000000000000000000000000000000000000000000000000000600052604160045260246000fd5b61342e82613045565b810181811067ffffffffffffffff8211171561344d5761344c6133f6565b5b80604052505050565b6000613460612f30565b905061346c8282613425565b919050565b600067ffffffffffffffff82111561348c5761348b6133f6565b5b61349582613045565b9050602081019050919050565b82818337600083830152505050565b60006134c46134bf84613471565b613456565b9050828152602081018484840111156134e0576134df6133f1565b5b6134eb8482856134a2565b509392505050565b600082601f830112613508576135076133ec565b5b81356135188482602086016134b1565b91505092915050565b60006020828403121561353757613536612f3a565b5b600082013567ffffffffffffffff81111561355557613554612f3f565b5b613561848285016134f3565b91505092915050565b60808201600082015161358060008501826132c5565b50602082015161359360208501826132c5565b5060408201516135a660408501826132d4565b5060608201516135b960608501826132e3565b50505050565b60006080820190506135d4600083018461356a565b92915050565b6000602082840312156135f0576135ef612f3a565b5b60006135fe84828501613187565b91505092915050565b61361081612fc9565b811461361b57600080fd5b50565b60008135905061362d81613607565b92915050565b6000806040838503121561364a57613649612f3a565b5b600061365885828601613187565b92505060206136698582860161361e565b9150509250929050565b600067ffffffffffffffff82111561368e5761368d6133f6565b5b61369782613045565b9050602081019050919050565b60006136b76136b284613673565b613456565b9050828152602081018484840111156136d3576136d26133f1565b5b6136de8482856134a2565b509392505050565b600082601f8301126136fb576136fa6133ec565b5b813561370b8482602086016136a4565b91505092915050565b6000806000806080858703121561372e5761372d612f3a565b5b600061373c87828801613187565b945050602061374d87828801613187565b935050604061375e878288016130d2565b925050606085013567ffffffffffffffff81111561377f5761377e612f3f565b5b61378b878288016136e6565b91505092959194509250565b600080604083850312156137ae576137ad612f3a565b5b600083013567ffffffffffffffff8111156137cc576137cb612f3f565b5b6137d8858286016134f3565b92505060206137e9858286016130d2565b9150509250929050565b6000806040838503121561380a57613809612f3a565b5b600061381885828601613187565b925050602061382985828601613187565b9150509250929050565b7f4e487b7100000000000000000000000000000000000000000000000000000000600052602260045260246000fd5b6000600282049050600182168061387a57607f821691505b60208210810361388d5761388c613833565b5b50919050565b7f4552433732313a20617070726f76616c20746f2063757272656e74206f776e6560008201527f7200000000000000000000000000000000000000000000000000000000000000602082015250565b60006138ef60218361300a565b91506138fa82613893565b604082019050919050565b6000602082019050818103600083015261391e816138e2565b9050919050565b7f4552433732313a20617070726f76652063616c6c6572206973206e6f7420746f60008201527f6b656e206f776e6572206f7220617070726f76656420666f7220616c6c000000602082015250565b6000613981603d8361300a565b915061398c82613925565b604082019050919050565b600060208201905081810360008301526139b081613974565b9050919050565b7f596f7520617265206e6f7420746865206f776e6572206f6620746865204e4654600082015250565b60006139ed60208361300a565b91506139f8826139b7565b602082019050919050565b60006020820190508181036000830152613a1c816139e0565b9050919050565b7f4e465420697320616c7265616479206f6e2073616c6500000000000000000000600082015250565b6000613a5960168361300a565b9150613a6482613a23565b602082019050919050565b60006020820190508181036000830152613a8881613a4c565b9050919050565b7f5072696365206d75737420626520657175616c20746f206c697374696e67207060008201527f7269636500000000000000000000000000000000000000000000000000000000602082015250565b6000613aeb60248361300a565b9150613af682613a8f565b604082019050919050565b60006020820190508181036000830152613b1a81613ade565b9050919050565b7f4552433732313a2063616c6c6572206973206e6f7420746f6b656e206f776e6560008201527f72206f7220617070726f76656400000000000000000000000000000000000000602082015250565b6000613b7d602d8361300a565b9150613b8882613b21565b604082019050919050565b60006020820190508181036000830152613bac81613b70565b9050919050565b7f596f752061726520746865206f776e6572206f6620746865204e465400000000600082015250565b6000613be9601c8361300a565b9150613bf482613bb3565b602082019050919050565b60006020820190508181036000830152613c1881613bdc565b9050919050565b7f506c65617365207375626d6974207468652061736b696e672070726963650000600082015250565b6000613c55601e8361300a565b9150613c6082613c1f565b602082019050919050565b60006020820190508181036000830152613c8481613c48565b9050919050565b7f496e646578206f7574206f6620626f756e647300000000000000000000000000600082015250565b6000613cc160138361300a565b9150613ccc82613c8b565b602082019050919050565b60006020820190508181036000830152613cf081613cb4565b9050919050565b7f4e487b7100000000000000000000000000000000000000000000000000000000600052603260045260246000fd5b7f4e487b7100000000000000000000000000000000000000000000000000000000600052601160045260246000fd5b6000613d60826130b1565b9150613d6b836130b1565b9250828201905080821115613d8357613d82613d26565b5b92915050565b6000613d94826130b1565b91507fffffffffffffffffffffffffffffffffffffffffffffffffffffffffffffffff8203613dc657613dc5613d26565b5b600182019050919050565b600081905092915050565b6000613de782612fff565b613df18185613dd1565b9350613e0181856020860161301b565b80840191505092915050565b6000613e198284613ddc565b915081905092915050565b7f4552433732313a20696e76616c696420746f6b656e2049440000000000000000600082015250565b6000613e5a60188361300a565b9150613e6582613e24565b602082019050919050565b60006020820190508181036000830152613e8981613e4d565b9050919050565b7f4552433732313a2061646472657373207a65726f206973206e6f74206120766160008201527f6c6964206f776e65720000000000000000000000000000000000000000000000602082015250565b6000613eec60298361300a565b9150613ef782613e90565b604082019050919050565b60006020820190508181036000830152613f1b81613edf565b9050919050565b7f5072696365206d757374206265206174206c6561737420302e3030312065746860008201527f6572000000000000000000000000000000000000000000000000000000000000602082015250565b6000613f7e60228361300a565b9150613f8982613f22565b604082019050919050565b60006020820190508181036000830152613fad81613f71565b9050919050565b7f546f6b656e2055524920616c7265616479206578697374730000000000000000600082015250565b6000613fea60188361300a565b9150613ff582613fb4565b602082019050919050565b6000602082019050818103600083015261401981613fdd565b9050919050565b600061402c8285613ddc565b91506140388284613ddc565b91508190509392505050565b7f4f776e61626c653a206e6577206f776e657220697320746865207a65726f206160008201527f6464726573730000000000000000000000000000000000000000000000000000602082015250565b60006140a060268361300a565b91506140ab82614044565b604082019050919050565b600060208201905081810360008301526140cf81614093565b9050919050565b7f4552433732313a207472616e736665722066726f6d20696e636f72726563742060008201527f6f776e6572000000000000000000000000000000000000000000000000000000602082015250565b600061413260258361300a565b915061413d826140d6565b604082019050919050565b6000602082019050818103600083015261416181614125565b9050919050565b7f4552433732313a207472616e7366657220746f20746865207a65726f2061646460008201527f7265737300000000000000000000000000000000000000000000000000000000602082015250565b60006141c460248361300a565b91506141cf82614168565b604082019050919050565b600060208201905081810360008301526141f3816141b7565b9050919050565b7f436f756e7465723a2064656372656d656e74206f766572666c6f770000000000600082015250565b6000614230601b8361300a565b915061423b826141fa565b602082019050919050565b6000602082019050818103600083015261425f81614223565b9050919050565b7f4f776e61626c653a2063616c6c6572206973206e6f7420746865206f776e6572600082015250565b600061429c60208361300a565b91506142a782614266565b602082019050919050565b600060208201905081810360008301526142cb8161428f565b9050919050565b7f4552433732313a20617070726f766520746f2063616c6c657200000000000000600082015250565b600061430860198361300a565b9150614313826142d2565b602082019050919050565b60006020820190508181036000830152614337816142fb565b9050919050565b7f4552433732313a207472616e7366657220746f206e6f6e20455243373231526560008201527f63656976657220696d706c656d656e7465720000000000000000000000000000602082015250565b600061439a60328361300a565b91506143a58261433e565b604082019050919050565b600060208201905081810360008301526143c98161438d565b9050919050565b7f45524337323155524953746f726167653a2055524920736574206f66206e6f6e60008201527f6578697374656e7420746f6b656e000000000000000000000000000000000000602082015250565b600061442c602e8361300a565b9150614437826143d0565b604082019050919050565b6000602082019050818103600083015261445b8161441f565b9050919050565b60008190508160005260206000209050919050565b60006020601f8301049050919050565b600082821b905092915050565b6000600883026144c47fffffffffffffffffffffffffffffffffffffffffffffffffffffffffffffffff82614487565b6144ce8683614487565b95508019841693508086168417925050509392505050565b6000819050919050565b600061450b614506614501846130b1565b6144e6565b6130b1565b9050919050565b6000819050919050565b614525836144f0565b61453961453182614512565b848454614494565b825550505050565b600090565b61454e614541565b61455981848461451c565b505050565b5b8181101561457d57614572600082614546565b60018101905061455f565b5050565b601f8211156145c25761459381614462565b61459c84614477565b810160208510156145ab578190505b6145bf6145b785614477565b83018261455e565b50505b505050565b600082821c905092915050565b60006145e5600019846008026145c7565b1980831691505092915050565b60006145fe83836145d4565b9150826002028217905092915050565b61461782612fff565b67ffffffffffffffff8111156146305761462f6133f6565b5b61463a8254613862565b614645828285614581565b600060209050601f8311600181146146785760008415614666578287015190505b61467085826145f2565b8655506146d8565b601f19841661468686614462565b60005b828110156146ae57848901518255600182019150602085019450602081019050614689565b868310156146cb57848901516146c7601f8916826145d4565b8355505b6001600288020188555050505b505050505050565b7f5072696365206d7573742062652067726561746572207468616e203000000000600082015250565b6000614716601c8361300a565b9150614721826146e0565b602082019050919050565b6000602082019050818103600083015261474581614709565b9050919050565b600060808201905061476160008301876131dc565b61476e60208301866131dc565b61477b6040830185613146565b6147886060830184612fd5565b95945050505050565b600081519050919050565b600082825260208201905092915050565b60006147b882614791565b6147c2818561479c565b93506147d281856020860161301b565b6147db81613045565b840191505092915050565b60006080820190506147fb6000830187613146565b6148086020830186613146565b61481560408301856131dc565b818103606083015261482781846147ad565b905095945050505050565b60008151905061484181612f70565b92915050565b60006020828403121561485d5761485c612f3a565b5b600061486b84828501614832565b91505092915050565b7f4e487b7100000000000000000000000000000000000000000000000000000000600052601260045260246000fd5b60006148ae826130b1565b91506148b9836130b1565b92508282039050818111156148d1576148d0613d26565b5b92915050565b7f4e487b7100000000000000000000000000000000000000000000000000000000600052603160045260246000fd5b7f4552433732313a206d696e7420746f20746865207a65726f2061646472657373600082015250565b600061493c60208361300a565b915061494782614906565b602082019050919050565b6000602082019050818103600083015261496b8161492f565b9050919050565b7f4552433732313a20746f6b656e20616c7265616479206d696e74656400000000600082015250565b60006149a8601c8361300a565b91506149b382614972565b602082019050919050565b600060208201905081810360008301526149d78161499b565b905091905056fea264697066735822122016e2b574de368b8db7ab4fb6990f2cf49a45fe08331e2ac50e88b386f8a4604164736f6c63430008130033",
  "immutableReferences": {},
  "source": "// SPDX-License-Identifier: MIT\npragma solidity ^0.8.19;\n\nimport \"@openzeppelin/contracts/token/ERC721/extensions/ERC721URIStorage.sol\";\nimport \"@openzeppelin/contracts/utils/Counters.sol\";\nimport \"@openzeppelin/contracts/access/Ownable.sol\";\n\ncontract NftMarket is ERC721URIStorage, Ownable {\n    using Counters for Counters.Counter;\n\n        struct NftItem {\n        uint tokenId;\n        uint price;\n        address creator;\n        bool isListed;\n    }\n\nuint public listingPrice = 0.025 ether;\n\n    \n    Counters.Counter private _listedItems;\n    Counters.Counter private _tokenIds;\n\n    \n    \n    mapping(string => bool) private _useTokenURIs;\n    mapping(uint => NftItem) private _idToNftItem;\n\n    mapping(address => mapping(uint => uint)) private _ownedTokens;\n    mapping(uint => uint) private _idToOwnIndex;\n\n    uint256[] private _allNfts;\n    mapping (uint => uint) private _idToNfIndex;\n\n    \n\n\n   event NftItemCreated (\n        uint tokenId,\n        uint price,\n        address creator,\n        bool isListed\n   );\n\n    constructor() ERC721(\"Creatures NFT\", \"CNFT\") {}\n\n    function setListingPrice(uint newPrice) external onlyOwner {\n        require(newPrice > 0, \"Price must be at least 0.001 ether\");\n        listingPrice = newPrice;\n    }\n\n    function getNftItem(uint tokenId) public view returns (NftItem memory) {\n    return _idToNftItem[tokenId];\n}\n\nfunction listedItemsCount() public view returns (uint) {\n    return _listedItems.current();\n}\n\nfunction tokenURIExists(string memory tokenURI) public view returns (bool) {\n    return _useTokenURIs[tokenURI] == true;    // Check if the token URI has been used\n}\n\nfunction totalSupply() public view returns (uint) {\n    return _allNfts.length;\n}\n\nfunction tokenByIndex(uint index) public view returns (uint) {\n    require(index < totalSupply(), \"Index out of bounds\");\n    return _allNfts[index];\n}\n\nfunction tokenofOwnerByIndex( address owner, uint index) public view returns (uint) {\n    require(index < ERC721.balanceOf(owner), \"Index out of bounds\");\n    return _ownedTokens[owner][index];\n}\n\nfunction getAllNftsOnSale() public view returns (NftItem[] memory) {\n    uint allItemCount = totalSupply();\n    uint currentIndex = 0;\n    NftItem[] memory items = new NftItem[](_listedItems.current());\n\n    for (uint i = 0; i < allItemCount; i++) {\n        uint tokenId = tokenByIndex(i);\n        NftItem storage item = _idToNftItem[tokenId];\n\n        if (item.isListed) {\n            items[currentIndex] = item;\n            currentIndex += 1;\n        }\n    }\n    return items;\n}\n\n\nfunction getOwnedNfts() public view returns (NftItem[] memory) {\n    uint ownedItemsCount = ERC721.balanceOf(msg.sender);\n    NftItem[] memory items = new NftItem[](ownedItemsCount);\n\n    for (uint i = 0; i < ownedItemsCount; i++) {\n        uint tokenId = tokenofOwnerByIndex(msg.sender, i);\n        NftItem storage item = _idToNftItem[tokenId];\n        items[i] = item;\n    }\n    return items;\n}\n\n\nfunction mintToken(string memory tokenURI, uint price) public payable returns (uint) {\n    require(!tokenURIExists(tokenURI), \"Token URI already exists\");\n    require(msg.value == listingPrice, \"Price must be equal to listing price\");\n\n        _tokenIds.increment();\n        _listedItems.increment();\n\n\n        uint newTokenId = _tokenIds.current();\n\n        _safeMint(msg.sender, newTokenId);\n        _setTokenURI(newTokenId, tokenURI);\n        _createNftItem(newTokenId, price);\n        _useTokenURIs[tokenURI] = true;\n\n        return newTokenId;\n}\nfunction buyNft(\n    uint tokenId\n) public payable {\n    uint price = _idToNftItem[tokenId].price;\n    address owner = ERC721.ownerOf(tokenId);\n\n    require(msg.sender != owner , \"You are the owner of the NFT\");\n    require(msg.value == price, \"Please submit the asking price\");\n\n    _idToNftItem[tokenId].isListed = false;\n    _listedItems.decrement();\n    \n    _transfer(owner, msg.sender, tokenId);\n    payable(owner).transfer(msg.value);\n}\n\nfunction placeNftOnSale(uint tokenId, uint newPrice) public payable {\n    require(ERC721.ownerOf(tokenId) == msg.sender, \"You are not the owner of the NFT\");\n    require(_idToNftItem[tokenId].isListed == false, \"NFT is already on sale\");\n    require(msg.value == listingPrice, \"Price must be equal to listing price\");\n\n    _idToNftItem[tokenId].isListed = true;\n    _idToNftItem[tokenId].price = newPrice;\n    _listedItems.increment();\n}\n\nfunction _createNftItem(\n    uint tokenId,\n    uint price\n) private {\n    require(price > 0, \"Price must be greater than 0\");\n\n    _idToNftItem[tokenId] = NftItem(\n        tokenId, \n        price, \n        msg.sender, \n        true\n        );\n\n    emit NftItemCreated(tokenId, price, msg.sender, true);\n}\n\nfunction _beforeTokenTransfer(\n    address from, \n    address to, \n    uint256 firstTokenId,\n    uint256 batchSize\n    ) internal virtual override {\n    super._beforeTokenTransfer(from, to, firstTokenId, batchSize);\n\n    // minting token\n    if (from == address(0)) {\n        _addTokenToAllTokensEnumeration(firstTokenId);\n    }\n    else if (from != to) {\n        _removeTokenFromOwnerEnumeration(from, firstTokenId);\n    }\n    if (to == address(0)) {\n        _removeTokenFromAllTokensEnumeration(firstTokenId);\n    }\n    else if (to != from) {\n        _addTokenToOwnerEnumeration(to, firstTokenId);\n    }\n}\n\nfunction _addTokenToAllTokensEnumeration(uint tokenId) private {\n    _idToNfIndex[tokenId] = _allNfts.length;\n    _allNfts.push(tokenId);\n}\n\nfunction _addTokenToOwnerEnumeration(address to, uint tokenId) private {\n    uint length = ERC721.balanceOf(to);\n    _ownedTokens[to][length] = tokenId;\n    _idToOwnIndex[tokenId] = length;\n}\n\nfunction _removeTokenFromOwnerEnumeration(address from, uint tokenId) private {\n    uint lastTokenIndex = ERC721.balanceOf(from) - 1;\n    uint tokenIndex = _idToOwnIndex[tokenId];\n\n    if (tokenIndex != lastTokenIndex) {\n        uint lastTokenId = _ownedTokens[from][lastTokenIndex];\n        _ownedTokens[from][tokenIndex] = lastTokenId;\n        _idToOwnIndex[lastTokenId] = tokenIndex;\n    }\n    delete _idToOwnIndex[tokenId];\n    delete _ownedTokens[from][lastTokenIndex];\n}\n\nfunction _removeTokenFromAllTokensEnumeration(uint tokenId) private {\n    uint lastTokenIndex = _allNfts.length - 1;\n    uint tokenIndex = _idToNfIndex[tokenId];\n    uint lastTokenId = _allNfts[lastTokenIndex];\n\n    _allNfts[tokenIndex] = lastTokenId;\n    _idToNfIndex[lastTokenId] = tokenIndex;\n    \n    delete _idToNfIndex[tokenId];\n    _allNfts.pop();\n}\n\n}\n",
  "sourcePath": "/Users/kavindamanohara/Documents/Hasitha_NFT/handicraft-nft-system/nft-blockchain-system/Lakarcade/client/contracts/NftMarket.sol",
  "compiler": {
    "name": "solc",
    "version": "0.8.19+commit.7dd6d404.Emscripten.clang"
  },
  "schemaVersion": "3.4.16",
  "updatedAt": "2026-01-27T17:33:03.266Z",
  "networkType": "ethereum",
  "devdoc": {
    "events": {
      "Approval(address,address,uint256)": {
        "details": "Emitted when `owner` enables `approved` to manage the `tokenId` token."
      },
      "ApprovalForAll(address,address,bool)": {
        "details": "Emitted when `owner` enables or disables (`approved`) `operator` to manage all of its assets."
      },
      "BatchMetadataUpdate(uint256,uint256)": {
        "details": "This event emits when the metadata of a range of tokens is changed. So that the third-party platforms such as NFT market could timely update the images and related attributes of the NFTs."
      },
      "MetadataUpdate(uint256)": {
        "details": "This event emits when the metadata of a token is changed. So that the third-party platforms such as NFT market could timely update the images and related attributes of the NFT."
      },
      "Transfer(address,address,uint256)": {
        "details": "Emitted when `tokenId` token is transferred from `from` to `to`."
      }
    },
    "kind": "dev",
    "methods": {
      "approve(address,uint256)": {
        "details": "See {IERC721-approve}."
      },
      "balanceOf(address)": {
        "details": "See {IERC721-balanceOf}."
      },
      "getApproved(uint256)": {
        "details": "See {IERC721-getApproved}."
      },
      "isApprovedForAll(address,address)": {
        "details": "See {IERC721-isApprovedForAll}."
      },
      "name()": {
        "details": "See {IERC721Metadata-name}."
      },
      "owner()": {
        "details": "Returns the address of the current owner."
      },
      "ownerOf(uint256)": {
        "details": "See {IERC721-ownerOf}."
      },
      "renounceOwnership()": {
        "details": "Leaves the contract without owner. It will not be possible to call `onlyOwner` functions. Can only be called by the current owner. NOTE: Renouncing ownership will leave the contract without an owner, thereby disabling any functionality that is only available to the owner."
      },
      "safeTransferFrom(address,address,uint256)": {
        "details": "See {IERC721-safeTransferFrom}."
      },
      "safeTransferFrom(address,address,uint256,bytes)": {
        "details": "See {IERC721-safeTransferFrom}."
      },
      "setApprovalForAll(address,bool)": {
        "details": "See {IERC721-setApprovalForAll}."
      },
      "supportsInterface(bytes4)": {
        "details": "See {IERC165-supportsInterface}"
      },
      "symbol()": {
        "details": "See {IERC721Metadata-symbol}."
      },
      "tokenURI(uint256)": {
        "details": "See {IERC721Metadata-tokenURI}."
      },
      "transferFrom(address,address,uint256)": {
        "details": "See {IERC721-transferFrom}."
      },
      "transferOwnership(address)": {
        "details": "Transfers ownership of the contract to a new account (`newOwner`). Can only be called by the current owner."
      }
    },
    "version": 1
  },
  "userdoc": {
    "kind": "user",
    "methods": {},
    "version": 1
  }
}